:100000000C9434000C9446000C9446000C9446006A
:100010000C9446000C9446000C9446000C94460048
:100020000C9446000C9446000C9446000C94460038
:100030000C9446000C9446000C9446000C94460028
:100040000C9446000C9446000C9446000C94460018
:100050000C9446000C9446000C9446000C94460008
:100060000C9446000C94460011241FBECFEFD8E03C
:10007000DEBFCDBF23E0AEE7B3E001C01D92A838DC
:10008000B207E1F70E94EA000C9459040C940000B6
:100090000F930AE004D00A95E9F70F9108950F93A2
:1000A00005E60BD00A95E9F70F9108950F930BE041
:1000B00004D00A95E9F70F9108951F930F9315E166
:1000C00005EC0A95F1F71A95E1F70F911F91089544
:1000D0000F935C985D985E985F984298419840981D
:1000E000549A559A569A579A3A9A399A389A5E9AE1
:1000F0005F9A59D0DBDF57D0D9DF55D0D7DF0CE27C
:1001000022D004E120D00CE01ED006E01CD014D098
:100110000F9108950F931F93FF93EF9310E00591B4
:100120001395103121F0002311F024D0F8CFEF9176
:10013000FF911F910F9108950F9301E004D002E009
:1001400002D00F9108950F931F939F93AFDF102F4D
:10015000107F9BB19F70192B1BB925D00295102FD2
:10016000107F9BB19F70192B1BB91DD09F911F91C0
:100170000F9108950F931F939F9398DF409A102F2C
:10018000107F9BB19F70192B1BB90DD00295102FBA
:10019000107F9BB19F70192B1BB905D040989F9180
:1001A0001F910F910895429A02D04298089500003D
:1001B0000000089553442057726974652065727277
:1001C0006F72005344206F7574206F66206D656DEB
:1001D0006F72790064DF2BD0AAD1A9D1A8D1A7D1A1
:1001E000A6D1A5D134E0D1E0C0E0A1D15FD0A6D0A6
:1001F000B6D18030D1F749D03A95B9F7D1E0C0E017
:1002000036D1803041F4639500913F008099739519
:100210007F3F39F0E7CF90DFF1E0E4EB7BDF38DFC1
:10022000FACF8ADFF1E0E3EC75DF32DFFACF50DF9F
:100230003DDFECD03BDFF5D039DF67D137DF60E061
:1002400070E02DDF79DF0895EF93FF930F931F93F5
:10025000F1E0E0E000E010E001920395E9F713958A
:100260001230D1F71F910F91EF91FF910895EF9305
:10027000FF930F93F3E0E0E000E0019203950E3767
:10028000E1F70F91EF91FF910895EF93FF930F9393
:100290004F93F3E0E0E0019109930A30E1F7008128
:1002A00009934F910F91FF91EF910895EF93FF9371
:1002B0000F933F9341DF072F02957AD05BDF072F23
:1002C00077D058DF062F029573D054DF062F70D0F9
:1002D00051DF00E24FDFE0E0F3E001910081003503
:1002E00041F5E0E0F3E038E001910C32E9F73A95AE
:1002F000D9F701913FDF00813DDF00E23BDFE0E025
:10030000F3E032E001910C32E9F73A95D9F7019127
:1003100031DF01912FDF0AE32DDF01912BDF019106
:1003200029DF0AE327DF019125DF019123DF00E2C6
:1003300021DF3F910F91FF91EF910895EF93FF938C
:100340000F933F9300ECFFDE03E514DF0FE412DFB1
:1003500007E410DF00E20EDFE0E0F3E03BE00191B4
:100360000C32E9F73A95D9F7019104DF01910E3289
:10037000E1F700DF0191FEDE00E2FCDE03E4FADEDD
:100380000FE4F8DE07E4F6DE00E2F4DEE0E0F3E09E
:100390003CE001910C32E9F73A95D9F70191EADE98
:1003A00001910E32E1F73F910F91FF91EF91089586
:1003B0001F930F700A3024F410E3010F1F9108956A
:1003C00017E3010F1F9108954C434420496E696360
:1003D00069616C697A61646F00534420496E696396
:1003E00069616C697A61646F20005344206E6F20EC
:1003F000646574656374616461200046414C4C41DE
:1004000020696E6974205344202020000F930BEF65
:1004100005B90FEE04B902E50CBD00E00DBD0F916A
:100420000895882799273AD1803029F4F3E0E9ED3F
:1004300071DE0CC081DE813021F4F3E0EAEE6ADE89
:1004400004C0F3E0EBEF66DE00C0FFCF08953F93FA
:100450000F93CF93DF9300E032E009930993339534
:10046000E1F7AFD1DF91CF910F913F910895EF93D5
:10047000FF93CF93DF932F933F934F935F936F93AC
:100480007F939F93AF93BF931F9200E0102E90E055
:1004900080E05D2F4C2F95D11F90BF91AF919F9120
:1004A0007F916F915F914F913F912F91DF91CF910C
:1004B000FF91EF910895EF93FF932F933F934F9305
:1004C0005F936F937F939F93AF93BF931F9200E0CF
:1004D000102E90E080E05FE14EE1BDD11F90BF9112
:1004E000AF919F917F916F915F914F913F912F912C
:1004F000FF91EF9108954E6F206669780046697804
:10050000204164717569726564000F935098589822
:10051000519A07E60093C40000E00093C50006E08E
:100520000093C20008E10093C1000F9108950F935A
:100530004F93EF93FF93F3E0E0E028D04432E9F7E4
:1005400041932DD023D04A3019F0419328D0FACFCF
:10055000419325D0EF91FF914F910F9108954F93C3
:10056000FF93EF933F93F3E0E0E038E041914C32AA
:10057000E9F73A95D9F74081473411F480E001C09A
:1005800081E03F91EF91FF914F9108950F9300917A
:10059000C00007FFFCCF4091C6000F9108954F9314
:1005A0000F930091C00005FFFCCF4093C6000F9150
:1005B0004F9108958EBD0DB407FEFDCF8EB5089501
:1005C0008FEF8EBD0DB407FEFDCF8EB50895CF928F
:1005D000DF92EF92FF921F93CF93DF93182F6A0160
:1005E0007B0180918203811115C08FEE810F8230D3
:1005F00040F088EE810F823020F080EE810F823053
:1006000048F40B2EB9E0CC0CDD1CEE1CFF1CBA9597
:10061000D1F7B02D2A98812F80640E94DA028F2DA5
:100620000E94DA028E2D0E94DA028D2D0E94DA02DB
:100630008C2D0E94DA02183021F487E80E94DA0239
:1006400007C085E90E94DA0203C0C15011F41AC044
:10065000C0E00E94E002D82F8F3FB9F3811112C091
:100660001A3381F40E94E00286FF04C081E0809387
:10067000820302C0109282030E94E0020E94E00204
:100680000E94E0020E94E0022A9A8D2FDF91CF9112
:100690001F91FF90EF90DF90CF9008950F931F93DD
:1006A000CF93DF931AE08FEF0E94DA021150D9F74F
:1006B0002A9840E050E0BA0180E00E94E702C0E2E0
:1006C000D0E009C040E050E0BA0180E00E94E702BB
:1006D000219709F463C08130A9F72A9A8FEF0E940D
:1006E000DA028FEF0E94DA024AEA51E060E070E03D
:1006F00088E00E94E702CEEFD0E00EC04AEA51E067
:1007000060E070E088E00E94E702219729F481E030
:100710008093870301E003C0813081F702E040E06D
:1007200050E0BA0187E30E94E70240E050E060E059
:1007300070E489E20E94E702CEEFD0E00FC040E013
:1007400050E0BA0187E30E94E70240E050E060E039
:1007500070E489E20E94E702219711F18111EFCF45
:1007600010928203023039F51DC040E050E0BA011A
:100770008AE30E94E702219719F41092870302C0CE
:100780008111F3CF80918203813021F482E0809344
:10079000870311C083E0809387030DC011E00BC075
:1007A00012E009C040E050E0BA018AE30E94E7028B
:1007B000CEEFD0E0E5CF812FDF91CF911F910F9148
:1007C00008950F931F93CF93DF938A01AB01BC0170
:1007D00088E10E94E702811139C02A988EEF0E94B9
:1007E000DA02E8011E5F89910E94DA02C017D10780
:1007F000D1F78FEF0E94DA028FEF0E94DA020E9497
:10080000E002982F9F71953039F02A9A1FC02196E7
:1008100029F42A9A81E01AC0C0E0D0E00E94E002E8
:100820008823A9F32A9A8FEF0E94DA022A9808C037
:10083000CE010196219619F42A9A81E007C0EC01B5
:100840000E94E0028823A1F32A9A80E0DF91CF91F1
:100850001F910F9108950F931F93CF93DF938A01F8
:10086000AB01BC0181E10E94E70281111DC02A9801
:10087000C0E0D0E005C0219719F42A9A81E014C0A5
:100880000E94E0028E3FB9F7E8011E5F0E94E0027D
:100890008993C017D107D1F70E94E0020E94E002BD
:1008A0000E94E0022A9A80E0DF91CF911F910F9180
:0608B0000895F894FFCF4B
:1008B6000000000000000000000000000000000032
:1008C6000000000000000000000000000000000022
:1008D6000000000000000000000000000000000012
:1008E6000000000000000000000000000000000002
:00000001FF
